{
  "_format": "hh-sol-artifact-1",
  "contractName": "Transactions",
  "sourceName": "contracts/Transactions.sol",
  "abi": [
    {
      "anonymous": false,
      "inputs": [
        {
          "indexed": false,
          "internalType": "address",
          "name": "from",
          "type": "address"
        },
        {
          "indexed": false,
          "internalType": "address",
          "name": "receiver",
          "type": "address"
        },
        {
          "indexed": false,
          "internalType": "uint256",
          "name": "amount",
          "type": "uint256"
        },
        {
          "indexed": false,
          "internalType": "string",
          "name": "message",
          "type": "string"
        },
        {
          "indexed": false,
          "internalType": "uint256",
          "name": "timestamp",
          "type": "uint256"
        }
      ],
      "name": "Transfer",
      "type": "event"
    },
    {
      "inputs": [
        {
          "internalType": "address payable",
          "name": "receiver",
          "type": "address"
        },
        {
          "internalType": "uint256",
          "name": "amount",
          "type": "uint256"
        },
        {
          "internalType": "string",
          "name": "message",
          "type": "string"
        }
      ],
      "name": "addToBlockchain",
      "outputs": [],
      "stateMutability": "nonpayable",
      "type": "function"
    },
    {
      "inputs": [],
      "name": "getAllTransactions",
      "outputs": [
        {
          "components": [
            {
              "internalType": "address",
              "name": "sender",
              "type": "address"
            },
            {
              "internalType": "address",
              "name": "receiver",
              "type": "address"
            },
            {
              "internalType": "uint256",
              "name": "amount",
              "type": "uint256"
            },
            {
              "internalType": "string",
              "name": "message",
              "type": "string"
            },
            {
              "internalType": "uint256",
              "name": "timestamp",
              "type": "uint256"
            }
          ],
          "internalType": "struct Transactions.Transaction[]",
          "name": "",
          "type": "tuple[]"
        }
      ],
      "stateMutability": "view",
      "type": "function"
    },
    {
      "inputs": [],
      "name": "getTransactionCount",
      "outputs": [
        {
          "internalType": "uint256",
          "name": "",
          "type": "uint256"
        }
      ],
      "stateMutability": "view",
      "type": "function"
    }
  ],
  "bytecode": "0x608060405234801561001057600080fd5b50610b11806100206000396000f3fe608060405234801561001057600080fd5b50600436106100415760003560e01c806327506f53146100465780632e7700f014610064578063eb12da4a14610082575b600080fd5b61004e61009e565b60405161005b91906107a4565b60405180910390f35b61006c61024f565b60405161007991906107c6565b60405180910390f35b61009c60048036038101906100979190610527565b610258565b005b60606001805480602002602001604051908101604052809291908181526020016000905b8282101561024657838290600052602060002090600502016040518060a00160405290816000820160009054906101000a900473ffffffffffffffffffffffffffffffffffffffff1673ffffffffffffffffffffffffffffffffffffffff1673ffffffffffffffffffffffffffffffffffffffff1681526020016001820160009054906101000a900473ffffffffffffffffffffffffffffffffffffffff1673ffffffffffffffffffffffffffffffffffffffff1673ffffffffffffffffffffffffffffffffffffffff168152602001600282015481526020016003820180546101ab90610963565b80601f01602080910402602001604051908101604052809291908181526020018280546101d790610963565b80156102245780601f106101f957610100808354040283529160200191610224565b820191906000526020600020905b81548152906001019060200180831161020757829003601f168201915b50505050508152602001600482015481525050815260200190600101906100c2565b50505050905090565b60008054905090565b60008081548092919061026a906109c6565b919050555060016040518060a001604052803373ffffffffffffffffffffffffffffffffffffffff1681526020018573ffffffffffffffffffffffffffffffffffffffff16815260200184815260200183815260200142815250908060018154018082558091505060019003906000526020600020906005020160009091909190915060008201518160000160006101000a81548173ffffffffffffffffffffffffffffffffffffffff021916908373ffffffffffffffffffffffffffffffffffffffff16021790555060208201518160010160006101000a81548173ffffffffffffffffffffffffffffffffffffffff021916908373ffffffffffffffffffffffffffffffffffffffff1602179055506040820151816002015560608201518160030190805190602001906103a19291906103f2565b506080820151816004015550507fc4b32d7ff75a51e487f3cbb5d3202f2efecca1f4c2b987e0039c1d3220b48a8333848484426040516103e595949392919061074a565b60405180910390a1505050565b8280546103fe90610963565b90600052602060002090601f0160209004810192826104205760008555610467565b82601f1061043957805160ff1916838001178555610467565b82800160010185558215610467579182015b8281111561046657825182559160200191906001019061044b565b5b5090506104749190610478565b5090565b5b80821115610491576000816000905550600101610479565b5090565b60006104a86104a384610806565b6107e1565b9050828152602081018484840111156104c057600080fd5b6104cb848285610921565b509392505050565b6000813590506104e281610aad565b92915050565b600082601f8301126104f957600080fd5b8135610509848260208601610495565b91505092915050565b60008135905061052181610ac4565b92915050565b60008060006060848603121561053c57600080fd5b600061054a868287016104d3565b935050602061055b86828701610512565b925050604084013567ffffffffffffffff81111561057857600080fd5b610584868287016104e8565b9150509250925092565b600061059a83836106b6565b905092915050565b6105ab816108eb565b82525050565b6105ba8161089d565b82525050565b6105c98161089d565b82525050565b60006105da82610847565b6105e4818561086a565b9350836020820285016105f685610837565b8060005b858110156106325784840389528151610613858261058e565b945061061e8361085d565b925060208a019950506001810190506105fa565b50829750879550505050505092915050565b600061064f82610852565b610659818561087b565b9350610669818560208601610930565b61067281610a9c565b840191505092915050565b600061068882610852565b610692818561088c565b93506106a2818560208601610930565b6106ab81610a9c565b840191505092915050565b600060a0830160008301516106ce60008601826105b1565b5060208301516106e160208601826105b1565b5060408301516106f4604086018261072c565b506060830151848203606086015261070c8282610644565b9150506080830151610721608086018261072c565b508091505092915050565b610735816108e1565b82525050565b610744816108e1565b82525050565b600060a08201905061075f60008301886105c0565b61076c60208301876105a2565b610779604083018661073b565b818103606083015261078b818561067d565b905061079a608083018461073b565b9695505050505050565b600060208201905081810360008301526107be81846105cf565b905092915050565b60006020820190506107db600083018461073b565b92915050565b60006107eb6107fc565b90506107f78282610995565b919050565b6000604051905090565b600067ffffffffffffffff82111561082157610820610a6d565b5b61082a82610a9c565b9050602081019050919050565b6000819050602082019050919050565b600081519050919050565b600081519050919050565b6000602082019050919050565b600082825260208201905092915050565b600082825260208201905092915050565b600082825260208201905092915050565b60006108a8826108c1565b9050919050565b60006108ba826108c1565b9050919050565b600073ffffffffffffffffffffffffffffffffffffffff82169050919050565b6000819050919050565b60006108f6826108fd565b9050919050565b60006109088261090f565b9050919050565b600061091a826108c1565b9050919050565b82818337600083830152505050565b60005b8381101561094e578082015181840152602081019050610933565b8381111561095d576000848401525b50505050565b6000600282049050600182168061097b57607f821691505b6020821081141561098f5761098e610a3e565b5b50919050565b61099e82610a9c565b810181811067ffffffffffffffff821117156109bd576109bc610a6d565b5b80604052505050565b60006109d1826108e1565b91507fffffffffffffffffffffffffffffffffffffffffffffffffffffffffffffffff821415610a0457610a03610a0f565b5b600182019050919050565b7f4e487b7100000000000000000000000000000000000000000000000000000000600052601160045260246000fd5b7f4e487b7100000000000000000000000000000000000000000000000000000000600052602260045260246000fd5b7f4e487b7100000000000000000000000000000000000000000000000000000000600052604160045260246000fd5b6000601f19601f8301169050919050565b610ab6816108af565b8114610ac157600080fd5b50565b610acd816108e1565b8114610ad857600080fd5b5056fea26469706673582212202500d90292a5407a8cab5833f9f6b3a18bf71197f93c2168fa79cc392330846f64736f6c63430008040033",
  "linkReferences": {},
  "deployedLinkReferences": {}
}